S0140000536F6C6172547261636B65722E7372656343
S11300000C9473000C9490000C9490000C94900049
S11300100C9490000C9490000C9490000C9490001C
S11300200C9490000C9490000C9490000C9490000C
S11300300C9490000C9490000C9490000C949000FC
S11300400C9490000C9490000C9490000C949000EC
S11300500C9490000C9490000C9490000C949000DC
S11300600C9490000C949000036EDB363D9A9999A1
S1130070993DABAAAA2A3E000000803F072C7AA52E
S1130080BA6CC590DA3B9365FC8BBC53F810FD3C0D
S11300905692834DBD879D3AB63DCBC9BF5BBE73B7
S11300A0DA0FC93F05A84CCDB2D44EB93836A902EF
S11300B00C50B9918688083CA6AAAA2ABE00000062
S11300C0803F0664EC1B3C04BC163E3BE5B93CC9CE
S11300D03C37C29E5A3D660498083EEA69AAAA3E85
S11300E0000000803F0011241FBECFEFD8E0DEBF28
S11300F0CDBF11E0A0E0B1E0E8E4FEE202C005906B
S11301000D92A630B107D9F721E0A6E0B1E001C015
S11301101D92A631B207E1F70E940B120C9422172C
S11301200C9400000E94FE1061E084E40E94881098
S113013062E084E40E94881063E084E40E948810F2
S11301408FEF84B965E083E40E94111064E083E4D6
S11301500E94111078940895CF93DF93CDB7DEB742
S1130160AE970FB6F894DEBF0FBECDBF62E084E455
S11301700E948C1060910001709101016155710918
S1130180072E000C880B990B0E9468142FE33EE79E
S11301904CE75FE30E940F166B017C019B01AC01ED
S11301A00E94161325E33AEF4EE85CE30E940F1613
S11301B00E94A01625E83BEE4DE151E40E940F1683
S11301C04B015C0125E33AEF4EE85CE3C701B6015D
S11301D00E940F166B017C010E94B91323EC35EFCA
S11301E040EF50E40E940F169B01AC01C501B4011D
S11301F00E9415134B015C01C701B6010E94A016B1
S11302006B017C0120E030E040EC5FE30E940F16BC
S11302109B01AC01C501B4010E94151320E736EA25
S113022049ED50E40E94161320E030E040E752E428
S11302300E94BE134B015C014090020150900301E7
S11302406090040170900501A30192010E941613AD
S113025020E030E040E451E40E94151320E030E057
S113026040E751E40E940F166DA37EA38FA398A7C5
S11302702AE939E94BEB51E4C701B6010E940F1694
S113028025E33AEF4EE85CE30E940F166B017C0114
S11302900E94EE1629E733ED43E15FEB0E940F164F
S11302A00E9404136D837E838F83988721EE3EE240
S11302B045E652E40E940F1629E838E848E85DE371
S11302C00E940F169B01AC0160E070E080E491E4B1
S11302D00E941513A50194010E941513698F7A8F4A
S11302E08B8F9C8F29E838E848E85DE36D817E8137
S11302F08F8198850E940F1621EE3EE245E652E476
S11303000E940F1620E030E040E451E40E941613EE
S1130310A50194010E9415136D8F7E8F8F8F98A372
S1130320C701B6010E94A0166D837E838F839887D0
S11303302FE034E040E05FE30E940F164B015C01C4
S1130340C701B6010E94B91369877A878B879C8796
S113035020E831EB4DE55FE30E940F166B017C0151
S113036025E33AEF4EE85CE36DA17EA18FA198A549
S11303700E940F160E94B91369837A838B839C832E
S11303809B01AC01C701B6010E940F169B01AC0191
S1130390C501B4010E9416130E94821321EE3EE2AD
S11303A045E652E40E940F166B017C012BED3FE001
S11303B049E450E40E940F1620E030E044E353E4A3
S11303C00E94BE134B015C0120E030E0A9016DA145
S11303D07EA18FA198A50E94B413882314F00C94D5
S11303E04F0A298D3A8D4B8D5C8DC301B2010E9459
S11303F00A16181614F00C944F0A2D8D3E8D4F8D4D
S113040058A1C301B2010E94B413882314F00C94C0
S11304104F0AC501B4010E94B91325E13EEA48E33D
S113042054E40E940F164B015C01A501940165E19F
S11304307EEB8DE394E40E9415130E94AE162AE924
S113044039E949EE50E40E94151320E030E040E21F
S113045051E40E940F164B015C0120E030E040E5BE
S113046051E4C701B6010E940A16181674F420E07C
S113047030E042EA52E4C701B6010E94B413882373
S113048024F4C501B4010E945B1020E831EB4DE572
S11304905FE36D817E818F8198850E940F162B0109
S11304A03C012FE034E040E05FE369857A858B8589
S11304B09C850E940F169B01AC0169817A818B8116
S11304C09C810E940F169B01AC01C301B2010E94E2
S11304D015132B013C0125E33AEF4EE85CE3C70119
S11304E0B6010E940F160E94B9139B01AC01C3010F
S11304F0B2010E94BE130E94041321EE3EE245E6BF
S113050052E40E940F166D837987282E392E0E949B
S1130510941021EC3AEA4AE25EE3609102017091A0
S1130520030180910401909105010E9416136093C8
S11305300201709303018093040190930501A4C404
S1130540609100017091010161557109072E000C41
S1130550880B990B0E9468142FE33EE74CE75FE396
S11305600E940F166B017C019B01AC010E941613C3
S113057025E33AEF4EE85CE30E940F160E94A016B2
S113058025E83BEE4DE151E40E940F1669837A831E
S11305908B839C8325E33AEF4EE85CE3C701B60105
S11305A00E940F166B017C010E94B91323EC35EFF6
S11305B040EF50E40E940F169B01AC0169817A81DF
S11305C08B819C810E94151369837A838B839C831E
S11305D0C701B6010E94A0166B017C0120E030E047
S11305E040EC5FE30E940F169B01AC0169817A81A4
S11305F08B819C810E94151320E736EA49ED50E473
S11306000E94161320E030E040E752E40E94BE133B
S113061069837A838B839C839B01AC01C301B20100
S11306200E94161320E030E040E451E40E941513C8
S113063020E030E040E751E40E940F166D8B7E8B82
S11306408F8B988F2AE939E94BEB51E4C701B60146
S11306500E940F1625E33AEF4EE85CE30E940F1662
S11306606B017C010E94A0166D877E878F87988B13
S11306702FE034E040E05FE30E940F162B013C01C1
S1130680C701B6010E94B913698B7A8B8B8B9C8B43
S113069020E831EB4DE55FE30E940F166B017C010E
S11306A025E33AEF4EE85CE36D897E898F89988D66
S11306B00E940F160E94B9136D8B7E8B8F8B988FBF
S11306C09B01AC01C701B6010E940F169B01AC014E
S11306D0C301B2010E9416130E94821321EE3EE26E
S11306E045E652E40E940F166B017C012BED3FE0BE
S11306F049E450E40E940F1620E030E044E353E460
S11307000E94BE130E94B91325E13EEA48E354E473
S11307100E940F162B013C01A301920165E17EEBBF
S11307208DE394E40E9415130E94AE162AE939E978
S113073049EE50E40E94151320E030E040E251E419
S11307400E940F166EA77DA7182F092FA5019401EB
S11307500E9415134B015C0120E030E040E551E4B8
S1130760C701B6010E940A16181674F420E030E09E
S113077042EA52E4C701B6010E94B413882324F468
S1130780C501B4010E945B1020E831EB4DE55FE345
S11307906D857E858F8598890E940F164B015C01BB
S11307A02FE034E040E05FE369897A898B899C8992
S11307B00E940F169B01AC016D897E898F89988DEB
S11307C00E940F169B01AC01C501B4010E941513D0
S11307D04B015C0125E33AEF4EE85CE3C701B60147
S11307E00E940F160E94B9139B01AC01C501B4010C
S11307F00E94BE130E94041321EE3EE245E652E439
S11308000E940F1669A77AA78BA79CA72D8139850B
S1130810422D532D0E9415130E94941021EC3AEAA4
S11308204AE25EE360910201709103018091040148
S1130830909105010E9416139B01AC016093020183
S113084070930301809304019093050169817A8177
S11308508B819C810E94161320E030E040E451E437
S11308600E94151320E030E040E751E40E940F1687
S113087069A37AA38BA39CA320E030E0A9010E9482
S11308800A1618160CF4D8C28EA49DA4A12EB02E5C
S1130890F5C2609100017091010161557109072E43
S11308A0000C880B990B0E9468142FE33EE74CE779
S11308B05FE30E940F164B015C019B01AC010E9497
S11308C0161325E33AEF4EE85CE30E940F160E94EC
S11308D0A01625E83BEE4DE151E40E940F166B0192
S11308E07C0125E33AEF4EE85CE3C501B4010E94C4
S11308F00F164B015C010E94B91323EC35EF40EF56
S113090050E40E940F169B01AC01C701B6010E947E
S113091015136B017C01C501B4010E94A0164B01A3
S11309205C0120E030E040EC5FE30E940F169B0185
S1130930AC01C701B6010E94151320E736EA49ED60
S113094050E40E94161320E030E040E752E40E9495
S1130950BE136B017C01209102013091030140918F
S11309600401509105010E94161320E030E040E498
S113097051E40E94151320E030E040E751E40E9466
S11309800F162B013C012AE939E94BEB51E4C5016F
S1130990B4010E940F1625E33AEF4EE85CE30E948F
S11309A00F164B015C010E94EE1629E733ED43E17B
S11309B05FEB0E940F160E94041329E838E848E808
S11309C05DE30E940F1621EE3EE245E652E40E94EA
S11309D00F1620E030E040E451E40E941613A70112
S11309E096010E9415136D8B7E8B8F8B988FC5019A
S11309F0B4010E94A0166D837E838F8398872FE0B5
S1130A0034E040E05FE30E940F166B017C01C501F6
S1130A10B4010E94B91369877A878B879C8720E881
S1130A2031EB4DE55FE30E940F164B015C0125E3BA
S1130A303AEF4EE85CE3C301B2010E940F160E9434
S1130A40B91369837A838B839C839B01AC01C501B1
S1130A50B4010E940F169B01AC01C701B6010E94AC
S1130A6016130E94821321EE3EE245E652E40E94F0
S1130A700F166B017C0190582BED3FE049E450E4E4
S1130A800E940F1620E030E044E353E40E94BE13BA
S1130A900E94B91325E13EEA48E354E40E940F168C
S1130AA04B015C01A501940165E17EEB8DE394E4C7
S1130AB00E9415130E94AE162AE939E949EE50E462
S1130AC00E94151320E030E040E251E40E940F162A
S1130AD04B015C01E894B7F82EA53DA5412F502F9A
S1130AE0C501B4010E9415132B013C0120E030E044
S1130AF040E551E4C701B6010E940A16181674F4C1
S1130B0020E030E042EA52E4C701B6010E94B41387
S1130B10882324F4C301B2010E945B1020E831EB66
S1130B204DE55FE36D817E818F8198850E940F166C
S1130B302B013C012FE034E040E05FE369857A85D6
S1130B408B859C850E940F169B01AC0169817A817B
S1130B508B819C810E940F169B01AC01C301B201E1
S1130B600E9415132B013C0125E33AEF4EE85CE3A8
S1130B70C701B6010E940F160E94B9139B01AC0174
S1130B80C301B2010E94BE130E94041321EE3EE28F
S1130B9045E652E40E940F169B01AC0160E070E050
S1130BA084EB93E40E941513062F172F8D839983EA
S1130BB0232D322D4D8559890E9415130E949410BE
S1130BC021EC3AEA4AE25EE360910201709103018A
S1130BD080910401909105010E9416139B01AC01C0
S1130BE060930201709303018093040190930501C3
S1130BF06D897E898F89988D0E94B41388230CF0A7
S1130C0022C162E084E40E9490106091000170911E
S1130C10010161557109072E000C880B990B0E9484
S1130C2068142FE33EE74CE75FE30E940F166B0165
S1130C307C019B01AC010E94161325E33AEF4EE8B8
S1130C405CE30E940F160E94A01625E83BEE4DE1DE
S1130C5051E40E940F162B013C0125E33AEF4EE8C4
S1130C605CE3C701B6010E940F166B017C010E9470
S1130C70B91323EC35EF40EF50E40E940F169B01AB
S1130C80AC01C301B2010E9415132B013C01C70141
S1130C90B6010E94A0166B017C0120E030E040EC1C
S1130CA05FE30E940F169B01AC01C301B2010E94D5
S1130CB0151320E736EA49ED50E40E94161320E0AC
S1130CC030E040E752E40E94BE13209102013091CB
S1130CD0030140910401509105010E94161320E084
S1130CE030E040E451E40E94151320E030E040E796
S1130CF051E40E940F162B013C012AE939E94BEB20
S1130D0051E4C701B6010E940F1625E33AEF4EE8FD
S1130D105CE30E940F166B017C010E94A0166D8398
S1130D207E838F8398872FE034E040E05FE30E9466
S1130D300F1669837A838B839C83C701B6010E9453
S1130D40B91369877A878B879C8720E831EB4DE557
S1130D505FE30E940F166B017C0125E33AEF4EE836
S1130D605CE3C301B2010E940F160E94B9132B0168
S1130D703C019B01AC01C701B6010E940F169B0107
S1130D80AC0169817A818B819C810E9416130E9437
S1130D90821321EE3EE245E652E40E940F166B01F7
S1130DA07C0120E831EB4DE55FE36D817E818F812D
S1130DB098850E940F166D837E838F8398872FE01A
S1130DC034E040E05FE369857A858B859C850E94E9
S1130DD00F169B01AC01C301B2010E940F169B01C7
S1130DE0AC016D817E818F8198850E9415132B0142
S1130DF03C0125E33AEF4EE85CE3C701B6010E94EB
S1130E000F160E94B9139B01AC01C301B2010E94E9
S1130E10BE130E94041321EE3EE245E652E40E9412
S1130E200F169B01AC0160E070E084EB93E40E9438
S1130E3015130E94941022C039A42AA48BA58D876F
S1130E408CA5898B0AC0302E212E8D818D878981B6
S1130E50898B8EA69DA61A2D0B2D20E030E0A901CA
S1130E6069A17AA18BA19CA10E940A1618160CF400
S1130E7010CD8DA58EA4982EA12EB02E89A58D837C
S1130E808AA589872BA43CA420E030E0A9016DA1A8
S1130E907EA18FA198A50E94B41388230CF0F2C2FE
S1130EA0409002015090030160900401709005018C
S1130EB0A3019201698D7A8D8B8D9C8D0E94B41350
S1130EC088230CF0DFC2A30192016D8D7E8D8F8D7E
S1130ED098A10E940A1618160CF432CBD3C2609162
S1130EE000017091010161557109072E000C880BF6
S1130EF0990B0E9468142FE33EE74CE75FE30E94DE
S1130F000F166B017C019B01AC010E94161325E3B3
S1130F103AEF4EE85CE30E940F160E94A01625E803
S1130F203BEE4DE151E40E940F162B013C0125E3F9
S1130F303AEF4EE85CE3C701B6010E940F166B015D
S1130F407C010E94B91323EC35EF40EF50E40E947A
S1130F500F169B01AC01C301B2010E9415132B01B2
S1130F603C01C701B6010E94A0166B017C0120E080
S1130F7030E040EC5FE30E940F169B01AC01C3011B
S1130F80B2010E94151320E736EA49ED50E40E94AD
S1130F90161320E030E040E752E40E94BE132B0118
S1130FA03C012091020130910301409104015091D0
S1130FB005010E94161320E030E040E451E40E9451
S1130FC0151320E030E040E751E40E940F16698BCE
S1130FD07A8B8B8B9C8B2AE939E94BEB51E4C70163
S1130FE0B6010E940F1625E33AEF4EE85CE30E9437
S1130FF00F166B017C010E94EE1629E733ED43E1E5
S11310005FEB0E940F160E94041329E838E848E8B1
S11310105DE30E940F1621EE3EE245E652E40E9493
S11310200F1620E030E040E451E40E941613A301BF
S113103092010E9415136D8B7E8B8F8B988FC70145
S1131040B6010E94A01669837A838B839C832FE068
S113105034E040E05FE30E940F162B013C01C7011E
S1131060B6010E94B9136D877E878F87988B20E81D
S113107031EB4DE55FE30E940F166B017C0125E324
S11310803AEF4EE85CE369897A898B899C890E94EE
S11310900F160E94B913698B7A8B8B8B9C8B9B01E7
S11310A0AC01C701B6010E940F169B01AC01C3013C
S11310B0B2010E9416130E94821321EE3EE245E61D
S11310C052E40E940F166B017C0190582BED3FE017
S11310D049E450E40E940F1620E030E044E353E476
S11310E00E94BE130E94B91325E13EEA48E354E48A
S11310F00E940F162B013C01A301920165E17EEBD6
S11311008DE394E40E9415130E94AE162AE939E98E
S113111049EE50E40E94151320E030E040E251E42F
S11311200E940F162B013C01E89477F8A501940165
S1131130C301B2010E9415134B015C0120E030E0B1
S113114040E551E4C701B6010E940A16181674F46A
S113115020E030E042EA52E4C701B6010E94B41331
S1131160882324F4C501B4010E945B1020E831EB0C
S11311704DE55FE369817A818B819C810E940F1622
S11311804B015C012FE034E040E05FE36D857E8538
S11311908F8598890E940F169B01AC0169897A8911
S11311A08B899C890E940F169B01AC01C501B40177
S11311B00E9415134B015C0125E33AEF4EE85CE312
S11311C0C701B6010E940F160E94B9139B01AC011E
S11311D0C501B4010E94BE130E94041321EE3EE235
S11311E045E652E40E940F169B01AC0160E070E0FA
S11311F084EB93E40E941513062F172F8D87998390
S11312002D813985422D532D0E9415130E9494106F
S113121021EC3AEA4AE25EE3609102017091030133
S113122080910401909105010E9416139B01AC0169
S1131230609302017093030180930401909305016C
S11312406D897E898F89988D0E94B41388230CF050
S113125013C162E084E40E949010609100017091D7
S1131260010161557109072E000C880B990B0E942E
S113127068142FE33EE74CE75FE30E940F164B012F
S11312805C019B01AC010E94161325E33AEF4EE882
S11312905CE30E940F160E94A01625E83BEE4DE188
S11312A051E40E940F166B017C0125E33AEF4EE8EE
S11312B05CE3C501B4010E940F164B015C010E945E
S11312C0B91323EC35EF40EF50E40E940F169B0155
S11312D0AC01C701B6010E9415136B017C01C50165
S11312E0B4010E94A0164B015C0120E030E040EC08
S11312F05FE30E940F169B01AC01C701B6010E9477
S1131300151320E736EA49ED50E40E94161320E055
S113131030E040E752E40E94BE1320910201309174
S1131320030140910401509105010E94161320E02D
S113133030E040E451E40E94151320E030E040E73F
S113134051E40E940F166B017C012AE939E94BEB49
S113135051E4C501B4010E940F1625E33AEF4EE8AB
S11313605CE30E940F164B015C010E94A0162B0146
S11313703C012FE034E040E05FE30E940F166987F0
S11313807A878B879C87C501B4010E94B9136D834A
S11313907E838F83988720E831EB4DE55FE30E94DD
S11313A00F164B015C0125E33AEF4EE85CE3C701FD
S11313B0B6010E940F160E94B9136B017C019B01B8
S11313C0AC01C501B4010E940F169B01AC016985F3
S11313D07A858B859C850E9416130E94821321EEC8
S11313E03EE245E652E40E940F164B015C0120E800
S11313F031EB4DE55FE3C301B2010E940F162B01EF
S11314003C012FE034E040E05FE36D817E818F8119
S113141098850E940F169B01AC01C701B6010E947A
S11314200F169B01AC01C301B2010E9415136B019D
S11314307C0125E33AEF4EE85CE3C501B4010E9468
S11314400F160E94B9139B01AC01C701B6010E949B
S1131450BE130E94041321EE3EE245E652E40E94CC
S11314600F169B01AC0160E070E084EB93E40E94F2
S113147015130E949410B5C50D8319872D843980E6
S11314805301420120E030E0A9016DA17EA18FA1AA
S113149098A50E940A1618160CF421CDA2C520E0C6
S11314A030E0A9016DA17EA18FA198A50E940A1622
S11314B018160CF096C5298D3A8D4B8D5C8DC301A1
S11314C0B2010E940A1618160CF08BC52D8D3E8DA4
S11314D04F8D58A1C301B2010E94B41388230CF0AC
S11314E080C5C501B4010E94B91325E13EEA48E371
S11314F054E40E940F164B015C01A501940165E1BF
S11315007EEB8DE394E40E9415130E94AE162AE943
S113151039E949EE50E40E94151320E030E040E23E
S113152051E40E940F16698B7D8B182F092F20E040
S113153030E040E551E4C701B6010E940A161816CE
S113154084F420E030E042EA52E4C701B6010E948C
S1131550B413882334F469897D89812F902F0E94E4
S11315605B1020E831EB4DE55FE36D817E818F8177
S113157098850E940F164B015C012FE034E040E097
S11315805FE369857A858B859C850E940F169B0194
S1131590AC0169817A818B819C810E940F169B0129
S11315A0AC01C501B4010E9415134B015C0125E394
S11315B03AEF4EE85CE3C701B6010E940F160E94A1
S11315C0B9139B01AC01C501B4010E94BE130E9472
S11315D0041321EE3EE245E652E40E940F169B01FD
S11315E0AC0160E070E084EB93E40E9415136D831A
S11315F07987282E392E0E94941021EC3AEA4AE287
S11316005EE3609102017091030180910401909165
S113161005010E94161360930201709303018093E5
S113162004019093050119A309A77CC160910001ED
S11316307091010161557109072E000C880B990BFB
S11316400E9468142FE33EE74CE75FE30E940F1605
S11316504B015C019B01AC010E94161325E33AEF98
S11316604EE85CE30E940F160E94A01625E83BEEAC
S11316704DE151E40E940F162B013C0125E33AEFA2
S11316804EE85CE3C501B4010E940F164B015C01F6
S11316900E94B91323EC35EF40EF50E40E940F167B
S11316A09B01AC01C301B2010E9415132B013C0143
S11316B0C501B4010E94A0164B015C0120E030E09A
S11316C040EC5FE30E940F169B01AC01C301B20121
S11316D00E94151320E736EA49ED50E40E941613E0
S11316E020E030E040E752E40E94BE139B01AC01CD
S11316F0C701B6010E94161320E030E040E451E433
S11317000E94151320E030E040E751E40E940F16D8
S11317102B013C012AE939E94BEB51E4C501B40141
S11317200E940F1625E33AEF4EE85CE30E940F1681
S11317306B017C010E94A01669837A838B839C834E
S11317402FE034E040E05FE30E940F164B015C01A0
S1131750C701B6010E94B9136D877E878F87988B66
S113176020E831EB4DE55FE30E940F166B017C012D
S113177025E33AEF4EE85CE3C301B2010E940F1681
S11317800E94B9132B013C019B01AC01C701B601B6
S11317900E940F169B01AC01C501B4010E941613EF
S11317A00E94821321EE3EE245E652E40E940F16A7
S11317B06B017C012BED3FE049E450E40E940F16DD
S11317C020E030E044E353E40E94BE130E94B913C6
S11317D025E13EEA48E354E40E940F164B015C0104
S11317E0A501940165E17EEB8DE394E40E94151359
S11317F00E94AE162AE939E949EE50E40E94151315
S113180020E030E040E251E40E940F16162F072F2B
S11318108BA79AA729893D8949A159A50E94151327
S11318204B015C0120E030E040E551E4C701B60122
S11318300E940A16181674F420E030E042EA52E4DA
S1131840C701B6010E94B413882324F4C501B4016E
S11318500E945B1020E831EB4DE55FE369817A81FA
S11318608B819C810E940F164B015C012FE034E0B8
S113187040E05FE36D857E858F8598890E940F1611
S11318809B01AC01C301B2010E940F169B01AC0184
S1131890C501B4010E9415134B015C0125E33AEF25
S11318A04EE85CE3C701B6010E940F160E94B9130B
S11318B09B01AC01C501B4010E94BE130E94041334
S11318C021EE3EE245E652E40E940F16C62ED72EC4
S11318D0E82EF92E2D813985422D532D0E941513A2
S11318E00E94941021EC3AEA4AE25EE3609102011C
S11318F07091030180910401909105010E941613D7
S11319006093020170930301809304019093050195
S1131910CD82D9862E2C3F2C198B0D8B8BA589A3B8
S11319208AA589A720E030E0A9016DA17EA18FA13D
S113193098A50E94B41388230CF0F9C2C090020148
S1131940D0900301E0900401F0900501A7019601F5
S1131950698D7A8D8B8D9C8D0E94B41388230CF035
S1131960EDC2A70196016D8D7E8D8F8D98A10E9489
S11319700A1618160CF45ACE19A109A589898AA742
S11319808D898BA7E1C260910001709101016155BD
S11319907109072E000C880B990B0E9468142FE321
S11319A03EE74CE75FE30E940F164B015C019B018D
S11319B0AC010E94161325E33AEF4EE85CE30E9463
S11319C00F160E94A01625E83BEE4DE151E40E945B
S11319D00F166B017C0125E33AEF4EE85CE3C50189
S11319E0B4010E940F164B015C010E94B91323EC51
S11319F035EF40EF50E40E940F169B01AC01C70184
S1131A00B6010E9415136B017C01C501B4010E944B
S1131A10A0164B015C0120E030E040EC5FE30E9443
S1131A200F169B01AC01C701B6010E94151320E7F4
S1131A3036EA49ED50E40E94161320E030E040E716
S1131A4052E40E94BE136B017C012091020130918B
S1131A50030140910401509105010E94161320E0F6
S1131A6030E040E451E40E94151320E030E040E708
S1131A7051E40E940F162B013C012AE939E94BEB92
S1131A8051E4C501B4010E940F1625E33AEF4EE874
S1131A905CE30E940F164B015C010E94EE1629E7DD
S1131AA033ED43E15FEB0E940F160E94041329E813
S1131AB038E848E85DE30E940F1621EE3EE245E671
S1131AC052E40E940F1620E030E040E451E40E940A
S1131AD01613A70196010E9415136D8B7E8B8F8BB5
S1131AE0988FC501B4010E94A01669837A838B8301
S1131AF09C832FE034E040E05FE30E940F166B010B
S1131B007C01C501B4010E94B9136D877E878F875C
S1131B10988B20E831EB4DE55FE30E940F164B01F3
S1131B205C0125E33AEF4EE85CE3C301B2010E9495
S1131B300F160E94B913698B7A8B8B8B9C8B9B013C
S1131B40AC01C501B4010E940F169B01AC01C70191
S1131B50B6010E9416130E94821321EE3EE245E66E
S1131B6052E40E940F166B017C0190582BED3FE06C
S1131B7049E450E40E940F1620E030E044E353E4CB
S1131B800E94BE130E94B91325E13EEA48E354E4DF
S1131B900E940F164B015C01A501940165E17EEBE7
S1131BA08DE394E40E9415130E94AE162AE939E9E4
S1131BB049EE50E40E94151320E030E040E251E485
S1131BC00E940F162B013C01E89477F82AA53BA547
S1131BD0412F502FC301B2010E9415134B015C0128
S1131BE020E030E040E551E4C701B6010E940A1646
S1131BF0181674F420E030E042EA52E4C701B6015A
S1131C000E94B413882324F4C501B4010E945B101C
S1131C1020E831EB4DE55FE369817A818B819C811A
S1131C200E940F164B015C012FE034E040E05FE3BB
S1131C306D857E858F8598890E940F169B01AC0166
S1131C4069897A898B899C890E940F169B01AC0152
S1131C50C501B4010E9415134B015C0125E33AEF61
S1131C604EE85CE3C701B6010E940F160E94B91347
S1131C709B01AC01C501B4010E94BE130E94041370
S1131C8021EE3EE245E652E40E940F169B01AC01B0
S1131C9060E070E084EB93E40E941513062F172F85
S1131CA08D8799832D813985422D532D0E941513DB
S1131CB00E94941021EC3AEA4AE25EE36091020148
S1131CC07091030180910401909105010E94161303
S1131CD09B01AC01609302017093030180930401A2
S1131CE0909305016D897E898F89988D0E94B41324
S1131CF088230CF013C162E084E40E949010609188
S1131D0000017091010161557109072E000C880BC7
S1131D10990B0E9468142FE33EE74CE75FE30E94AF
S1131D200F164B015C019B01AC010E94161325E3C5
S1131D303AEF4EE85CE30E940F160E94A01625E8D5
S1131D403BEE4DE151E40E940F166B017C0125E34B
S1131D503AEF4EE85CE3C501B4010E940F164B0153
S1131D605C010E94B91323EC35EF40EF50E40E946C
S1131D700F169B01AC01C701B6010E9415136B013C
S1131D807C01C501B4010E94A0164B015C0120E056
S1131D9030E040EC5FE30E940F169B01AC01C701E9
S1131DA0B6010E94151320E736EA49ED50E40E947B
S1131DB0161320E030E040E752E40E94BE13209165
S1131DC002013091030140910401509105010E94E8
S1131DD0161320E030E040E451E40E94151320E0A3
S1131DE030E040E751E40E940F166B017C012AE9C0
S1131DF039E94BEB51E4C501B4010E940F1625E308
S1131E003AEF4EE85CE30E940F162B013C010E945E
S1131E10A0164B015C012FE034E040E05FE30E9438
S1131E200F1669877A878B879C87C301B2010E944A
S1131E30B9136D837E838F83988720E831EB4DE55A
S1131E405FE30E940F162B013C0125E33AEF4EE8B5
S1131E505CE3C701B6010E940F160E94B9136B011F
S1131E607C019B01AC01C301B2010E940F169B01CE
S1131E70AC0169857A858B859C850E9416130E9426
S1131E80821321EE3EE245E652E40E940F162B0136
S1131E903C0120E831EB4DE55FE3C501B4010E944C
S1131EA00F164B015C012FE034E040E05FE36D81ED
S1131EB07E818F8198850E940F169B01AC01C7011A
S1131EC0B6010E940F169B01AC01C501B4010E942A
S1131ED015136B017C0125E33AEF4EE85CE3C30183
S1131EE0B2010E940F160E94B9139B01AC01C701F5
S1131EF0B6010E94BE130E94041321EE3EE245E6A1
S1131F0052E40E940F169B01AC0160E070E084EB88
S1131F1093E40E9415130E94941063C00D831987E3
S1131F202D8439804AA65BA6162D072D0DC08989FC
S1131F308AA78D898BA719A109A506C089898AA7B3
S1131F408D898BA719A109A520E030E0A9016DA115
S1131F507EA18FA198A50E940A1618160CF413CD21
S1131F6040C0C701B6010E94A31420E030E040EC59
S1131F7051E40E94B413811118C080910001909122
S1131F8001010196909301018093000110920201D6
S1131F9010920301109204011092050160EC77E2A3
S1131FA089E090E00E94A1111CC060EC77E289E016
S1131FB090E00E94A11121EC3AEA4AE25EE36091CA
S1131FC002017091030180910401909105010E9426
S1131FD0161360930201709303018093040190939C
S1131FE00501C0900201D0900301E0900401F0903B
S1131FF00501A7019601698D7A8D8B8D9C8D0E94B8
S11320000A1618160CF4ADCFA70196016D8D7E8DBE
S11320108F8D98A10E94B41388230CF4A2CF0C9442
S1132020B60041E00E941012089541E00E948A1215
S1132030089540E00E948A120895CF92DF92EF92B1
S1132040FF926B017C0165E083E40E94151064E05B
S113205083E40E941910C701B6010E94511165E082
S113206083E40E94191064E083E40E941910FF9035
S1132070EF90DF90CF900895CF92DF92EF92FF928E
S11320806B017C0165E083E40E94191064E083E441
S11320900E941510C701B6010E94511165E083E446
S11320A00E94191064E083E40E941910FF90EF90DD
S11320B0DF90CF900895CF92DF92EF92FF926B0161
S11320C07C0120E030E0A9010E94B413882374F459
S11320D0C701B6019F772CEE31EF4CE154E40E9426
S11320E00F160E94A3140E943C100DC0C701B60134
S11320F09F772CEE31EF4CE154E40E940F160E94BE
S1132100A3140E941D10FF90EF90DF90CF900895CC
S113211041E00E941012089541E00E948A1208953D
S113212040E00E948A1208958F929F92AF92BF92CC
S1132130CF92DF92EF92FF92CF9328E23FE04BECF5
S11321405CE30E94BE130E947C160E9430144B0173
S11321505C016B017C011CC063E084E40E948C1070
S113216085B1C1E08C2785B980E190E00E94061119
S113217063E084E40E94901085B1C827C5B980E16A
S113218090E00E94061181E0C81AD108E108F10824
S11321901C141D041E041F04FCF285B1C1E08C272D
S11321A085B9880C991CAA1CBB1C880C991CAA1CF8
S11321B0BB1C880C991CAA1CBB1C880C991CAA1C4F
S11321C0BB1C80EE93E9A4E0B0E088199909AA0940
S11321D0BB09BC01CD01660F771F881F991F0E94A0
S11321E0A11185B1C827C5B9CF91FF90EF90DF90B9
S11321F0CF90BF90AF909F908F90089515BC109290
S1132200800010928100109282000895BC01E1E8E0
S1132210F0E08081816080838FE692E1A3E8B0E4FE
S11322208093080190930901A0930A01B0930B01D4
S1132230072E000C880B990B0E9468142FE632E1DC
S113224043E850E40E94BE130E947C160E9430149E
S1132250709311016093100110920701109206010E
S11322600EC0B09BFECF86B3816086BB8091060111
S113227090910701019690930701809306012091A4
S113228006013091070180911001909111012817E6
S113229039073CF310920701109206011092810055
S11322A00895CF92DF92EF92FF92E1E8F0E020816F
S11322B0216020830F2EFFE6CF2EF2E1DF2EF3E81C
S11322C0EF2EF0E4FF2EF02DC0920801D092090108
S11322D0E0920A01F0920B01A70196010E94BE133D
S11322E00E949D130E943014709311016093100199
S11322F010920701109206010EC0B09BFECF86B368
S1132300816086BB809106019091070101969093AC
S11323100701809306012091060130910701809105
S1132320100190911101281739073CF3109207010D
S11323301092060110928100FF90EF90DF90CF90F1
S113234008950F931F93E1E8F0E02081216020833A
S11323500FE612E123E830E4009308011093090129
S113236020930A0130930B010E9468142FE632E196
S113237043E850E40E94BE130E947C160E9430146D
S113238060931201709313018093140190931501CB
S113239010920C0110920D0110920E0110920F0177
S11323A018C0B09BFECF86B3816086BB80910C01C0
S11323B090910D01A0910E01B0910F010196A11D04
S11323C0B11D80930C0190930D01A0930E01B09365
S11323D00F0140910C0150910D0160910E0170911B
S11323E00F018091120190911301A0911401B091F9
S11323F01501481759076A077B079CF210920C01D4
S113240010920D0110920E0110920F011092810092
S11324101F910F9108950E9492000E94AC00FDCF7D
S1132420823431F118F4813439F008958334E1F1C0
S1132430843409F454C0089541110CC02AB381E0D6
S113244090E002C0880F991F6A95E2F78095822375
S11324508ABB0895413009F05CC02AB381E090E062
S113246002C0880F991F6A95E2F7822B8ABB0895F0
S113247041110CC024B181E090E002C0880F991F83
S11324806A95E2F78095822384B90895413009F072
S113249040C024B181E090E002C0880F991F6A9582
S11324A0E2F7822B84B9089541110CC027B181E071
S11324B090E002C0880F991F6A95E2F78095822305
S11324C087B90895413029F527B181E090E002C031
S11324D0880F991F6A95E2F7822B87B908954111F5
S11324E00CC02AB181E090E002C0880F991F6A9560
S11324F0E2F7809582238AB90895413051F42AB1D4
S113250081E090E002C0880F991F6A95E2F7822B60
S11325108AB90895823431F118F4813439F0089578
S11325208334E1F1843409F454C0089541110CC09A
S11325302BB381E090E002C0880F991F6A95E2F7FF
S1132540809582238BBB0895413009F05CC02BB386
S113255081E090E002C0880F991F6A95E2F7822B10
S11325608BBB089541110CC025B181E090E002C0FD
S1132570880F991F6A95E2F78095822385B908959B
S1132580413009F040C025B181E090E002C0880FDD
S1132590991F6A95E2F7822B85B9089541110CC001
S11325A028B181E090E002C0880F991F6A95E2F794
S11325B08095822388B90895413029F528B181E0B6
S11325C090E002C0880F991F6A95E2F7822B88B9C0
S11325D0089541110CC02BB181E090E002C0880F36
S11325E0991F6A95E2F7809582238BB9089541304B
S11325F051F42BB181E090E002C0880F991F6A95D5
S1132600E2F7822B8BB908959F939F770E94BA14A7
S11326100F90002042F49058A2EA2AED3FE049E4EA
S113262050E40E942D130C94A4155058BB27AA27DC
S11326300E942D130C94A4150E946B1538F00E946F
S1132640721520F039F49F3F19F426F40C942D15DB
S11326500EF4E095E7FB0C94FE14E92F0E94C915D3
S113266058F3BA17620773078407950720F079F4C3
S1132670A6F50C9403160EF4E0950B2EBA2FA02D9C
S11326800B01B90190010C01CA01A0011124FF271B
S1132690591B99F0593F50F4503E68F11A16F04016
S11326A0A22F232F342F4427585FF3CF4695379515
S11326B02795A795F0405395C9F77EF41F16BA0BDA
S11326C0620B730B840BBAF09150A1F0FF0FBB1F88
S11326D0661F771F881FC2F70EC0BA0F621F731FD1
S11326E0841F48F4879577956795B795F7959E3F2E
S11326F008F0B0CF9395880F08F09927EE0F9795BF
S1132700879508959F939F77EEE389379E0728F472
S1132710E8E6F0E00E9457150CC00E94BA149058E5
S1132720A2EA2AED3FE049EC5FE30E942D130E94E8
S1132730A4150F9007FC905808950E94EB1590F093
S11327409F3748F4911116F40C94041660E070E07D
S113275080E89FE3089526F01B16611D711D811DFD
S11327600C9404150C941F150E94DA1408F481E0EB
S113277008950E947B15E3950C94B5150E94D2131D
S11327800C94A4150E94721558F00E946B1540F029
S113279029F45F3F29F00C94FE1451110C94041693
S11327A00C942D150E94C91568F39923B1F3552390
S11327B091F3951B550BBB27AA2762177307840750
S11327C038F09F5F5F4F220F331F441FAA1FA9F3E6
S11327D035D00E2E3AF0E0E832D091505040E695D4
S11327E0001CCAF72BD0FE2F29D0660F771F881F35
S11327F0BB1F261737074807AB07B0E809F0BB0B28
S1132800802DBF01FF2793585F4F3AF09E3F51053B
S113281078F00C94FE140C9404165F3FE4F3983E95
S1132820D4F3869577956795B795F7959F5FC9F724
S1132830880F911D9695879597F90895E1E0660FA5
S1132840771F881FBB1F621773078407BA0720F01E
S1132850621B730B840BBA0BEE1F88F7E095089587
S11328600E9437146894B1110C94041608950E94C0
S1132870D11588F09F5798F0B92F9927B751B0F028
S1132880E1F0660F771F881F991F1AF0BA95C9F7F0
S113289014C0B13091F00E940316B1E008950C9475
S11328A00316672F782F8827B85F39F0B93FCCF328
S11328B0869577956795B395D9F73EF4909580956D
S11328C0709561957F4F8F4F9F4F0895E89409C08D
S11328D097FB3EF490958095709561957F4F8F4F4F
S11328E09F4F9923A9F0F92F96E9BB279395F69565
S11328F0879577956795B795F111F8CFFAF4BB0FE3
S113290011F460FF1BC06F5F7F4F8F4F9F4F16C046
S1132910882311F096E911C0772321F09EE8872FD0
S1132920762F05C0662371F096E8862F70E060E08C
S11329302AF09A95660F771F881FDAF7880F969505
S1132940879597F908950E94EB1590F09F3748F406
S1132950911116F00C94041660E070E080E89FEB8F
S1132960089526F41B16611D711D811D0C94041518
S11329700C941F15DF93CF931F930F938B01EC01DE
S1132980ECE7F0E00E9430150E94A4159801AE0116
S11329908B01EC0160E070E080E89FE30E94151376
S11329A00E94AE169801AE010F911F91CF91DF9155
S11329B00C942216990F0008550FAA0BE0E8FEEFBD
S11329C016161706E807F907C0F012161306E407EF
S11329D0F50798F0621B730B840B950B39F40A26E8
S11329E061F0232B242B252B21F408950A2609F4C6
S11329F0A140A6958FEF811D811D089597F99F67CA
S1132A0080E870E060E00895882371F4772321F072
S1132A109850872B762F07C0662311F499270DC091
S1132A209051862B70E060E02AF09A95660F771F2C
S1132A30881FDAF7880F9695879597F908959F3F31
S1132A4031F0915020F4879577956795B795880F65
S1132A50911D9695879597F908959FEF80EC0895B9
S1132A60DF93CF931F930F93FF92EF92DF927B013B
S1132A708C01689406C0DA2EEF010E942216FE0132
S1132A80E894A5912591359145915591A6F3EF01CF
S1132A900E942D13FE019701A801DA9469F7DF90D3
S1132AA0EF90FF900F911F91CF91DF9108959F9325
S1132AB08F937F936F93FF93EF939B01AC010E94DD
S1132AC00F16EF91FF910E9430152F913F914F9176
S1132AD05F910C940F1600240A9416161706180614
S1132AE00906089500240A9412161306140605060E
S1132AF008950C942D150E94D115D8F3E894E0E0C4
S1132B00BB279F57F0F02AED3FE049EC06C0EE0FDB
S1132B10BB0F661F771F881F28F0B23A620773073E
S1132B20840728F0B25A620B730B840BE3959A95D1
S1132B3072F7803830F49A95BB0F661F771F881F91
S1132B40D2F790480C942115092E0394000C11F42B
S1132B50882352F0BB0F40F4BF2B11F460FF04C074
S1132B606F5F7F4F8F4F9F4F0895EF93E0FF07C034
S1132B70A2EA2AED3FE049EC5FEB0E942D130E948C
S1132B80A4150F90039401FC9058E4EAF0E00C942F
S1132B90571557FD9058440F551F59F05F3F71F07A
S1132BA04795880F97FB991F61F09F3F79F08795B0
S1132BB00895121613061406551FF2CF4695F1DF39
S1132BC008C0161617061806991FF1CF86957105C9
S1132BD06105089408950E94D115A0F0BEE7B917C5
S1132BE088F4BB279F3860F41616B11D672F782F21
S1132BF08827985FF7CF869577956795B11D93954C
S1132C009639C8F30895E894BB2766277727CB0144
S1132C1097F908950E94DA1408F48FEF08950E943A
S1132C2022160C94A4150E946B1538F00E9472159C
S1132C3020F0952311F00C94FE140C942D151124FE
S1132C400C9404160E94C91570F3959FC1F3950F57
S1132C5050E0551F629FF001729FBB27F00DB11D1C
S1132C60639FAA27F00DB11DAA1F649F6627B00DAC
S1132C70A11D661F829F2227B00DA11D621F739F95
S1132C80B00DA11D621F839FA00D611D221F749FA3
S1132C903327A00D611D231F849F600D211D822FEA
S1132CA0762F6A2F11249F5750409AF0F1F0882311
S1132CB04AF0EE0FFF1FBB1F661F771F881F91503E
S1132CC05040A9F79E3F510580F00C94FE140C94DB
S1132CD004165F3FE4F3983ED4F3869577956795A1
S1132CE0B795F795E7959F5FC1F7FE2B880F911D68
S1132CF09695879597F908950E94D115E8F09E3727
S1132D00E8F09639B8F49E3848F4672F782F88276E
S1132D10985FF9CF86957795679593959539D0F314
S1132D20B62FB1706B0F711D811D20F487957795B7
S1132D30679593950C9404150C941F150C94041624
S1132D409F930E947B150F9007FCEE5F0C94B515C2
S1132D5019F416F40C942D150C941F150E94D1151A
S1132D60B8F39923C9F3B6F39F57550B87FF0E9415
S1132D7013170024A0E640EA9001805856959795D1
S1132D8028F4805C660F771F881F20F0261737070A
S1132D90480730F4621B730B840B202931294A2B1A
S1132DA0A69517940794202531254A2758F7660FCE
S1132DB0771F881F20F026173707480730F4620B67
S1132DC0730B840B200D311D411DA09581F7B901B2
S1132DD0842F9158880F969587950895DF93D92F5E
S1132DE00E947B15E695D7952AED3FE049E45FE321
S1132DF0B33A6207730784079507D7953AF0A2EAB6
S1132E0049EC90680E942D130E94A415E2ECF0E0B6
S1132E100E945715DD0F13F00E941A17DD0F0BF4F3
S1132E209058DF91089591505040660F771F881F86
S1132E30D2F708959B01AC0160E070E080E89FE365
S10B2E400C94BE13F894FFCFBB
S1092E481C009A993941B7
S9030000FC
